:020000040800F2
:100000000028002045120008AD110008B3110008B7
:10001000B9110008BF110008C51100080000000058
:10002000000000000000000000000000CB110008EC
:10003000D711000800000000E3110008EF110008CC
:100040008D1200088D1200088D1200088D12000814
:100050008D1200088D1200088D1200088D12000804
:100060008D1200088D1200088D1200088D120008F4
:100070008D1200088D1200088D1200088D120008E4
:100080008D1200088D1200088D1200088D120008D4
:100090008D1200088D1200088D1200088D120008C4
:1000A0008D1200088D1200088D1200088D120008B4
:1000B000FD1100088D120008000000008D120008DC
:1000C0008D12000800000000000000008D120008E2
:1000D000000000008D1200088D12000800000000D2
:1000E0008D1200088D1200088D120008000000001B
:1000F0000000000000000000000000000000000000
:0C01000000000000000000005FF808F1A3
:10010C0010B5054C237833B9044B13B10448AFF345
:10011C0000800123237010BD580000200000000057
:10012C00E428000808B5034B1BB103490348AFF39F
:10013C00008008BD000000005C000020E4280008DE
:10014C0080B582B000AF78607B68032B2DD07B68C4
:10015C00032B41DC7B68012B03D07B68022B12D074
:10016C003AE01F4B1B68012B31D112211D4801F0C5
:10017C00A2FB01226C211B4801F085FB4FF4FA70A5
:10018C0000F0B8FE23E0164B1B68012B21D1242173
:10019C00144801F090FB01225A21124801F073FB24
:1001AC004FF4FA7000F0A6FE13E00D4B1B68012B08
:1001BC0011D148210B4801F07EFB01223621094860
:1001CC0001F061FB4FF4FA7000F094FE03E000BF05
:1001DC0002E000BF00E000BF00BF0837BD4680BD95
:1001EC00A40000200008014080B500AF614B1B78D3
:1001FC00032B00F2BC8001A252F823F01902000874
:10020C0065020008BD0200081503000800F076FB2B
:10021C0000F04CFC002000F0C7F9002000F0BAF808
:10022C000346002B00F09C8001220E21524801F065
:10023C002AFB01227021504801F025FB4D4B012275
:10024C001A7000F01DFE4D4B00221A6000F028FEC3
:10025C004B4B00221A6083E00120FFF771FF012055
:10026C0000F0A2F9002000F095F80346002B02D014
:10027C00404B02221A70012000F08CF80346002B30
:10028C000BD0404B1B6801333E4A13603D4B1B683F
:10029C00632B02DD3B4B01221A60022000F07AF83E
:1002AC000346002B5ED0374B1B68374A136059E06E
:1002BC000220FFF745FF022000F076F9012000F044
:1002CC0069F80346002B0BD0304B1B6801332F4AC7
:1002DC0013602E4B1B68632B02DD2C4B01221A6022
:1002EC00022000F057F80346002B03D0274B1B6865
:1002FC00254A5360002000F04DF80346002B33D004
:10030C001C4B03221A702FE00320FFF719FF032068
:10031C0000F04AF9012000F03DF80346002B0BD009
:10032C001B4B1B6801331A4A1360194B1B68632B58
:10033C0002DD174B01221A60022000F02BF8034655
:10034C00002B03D0124B1B680F4A9360002000F067
:10035C0021F80346002B09D0064B00221A7005E049
:10036C0000BF04E000BF02E000BF00E000BF00BF20
:10037C0080BD00BF740000200008014084000020F4
:10038C00880000203C0000203000002040000020AD
:10039C004400002080B483B000AF7860094A7B68C9
:1003AC0052F82330012B06D1064A7B68002142F813
:1003BC002310012300E0002318460C37BD4680BCF7
:1003CC00704700BF7800002080B483B000AF786025
:1003DC00044A7B68012142F8231000BF0C37BD464C
:1003EC0080BC70477800002080B582B000AF00233D
:1003FC007B606BE0394A7B6852F8232038497B6874
:10040C0041F82320374A7B6852F8232033497B6814
:10041C0041F823207B68002B0AD14FF4005132485D
:10042C0001F01AFA034619462E4A7B6842F823104B
:10043C007B68012B0AD14FF480412B4801F00CFA58
:10044C0003461946274A7B6842F823107B68022B27
:10045C000AD14FF40041244801F0FEF90346194635
:10046C00204A7B6842F823101D4A7B6852F82320EF
:10047C001A497B6851F823309A4224D1174A7B6879
:10048C0052F8232017497B6851F823309A421AD12D
:10049C00164A7B6852F8232012497B6851F82330A6
:1004AC009A4210D00F4A7B6852F823200F497B6880
:1004BC0041F823200B4A7B6852F82330002B02D1E1
:1004CC007868FFF781FF7B6801337B607B68022BC8
:1004DC0090DD00BF00BF0837BD4680BD0C0000207A
:1004EC00000000201800002000080140240000201B
:1004FC0080B582B000AF786001227F21294801F0DD
:10050C00C2F97B68092B49D801A252F823F000BF2D
:10051C00450500084F05000859050008630500084B
:10052C006D05000877050008810500088B0500089B
:10053C00950500089F0500083F211A4801F0BBF9FA
:10054C002CE00621174801F0B6F927E05B2115488D
:10055C0001F0B1F922E04F21124801F0ACF91DE095
:10056C006621104801F0A7F918E06D210D4801F043
:10057C00A2F913E07D210B4801F09DF90EE0072153
:10058C00084801F098F909E07F21064801F093F939
:10059C0004E06F21034801F08EF900BF00BF08375B
:1005AC00BD4680BD000C014080B582B000AF7860C4
:1005BC00C84B1B68032B00F2888101A252F823F070
:1005CC00DD0500086F060008F9060008F5070008AD
:1005DC0000224FF48071C04801F055F901224FF40C
:1005EC006061BD4801F04FF97B68032B2CD801A248
:1005FC0052F823F0110600083D06000845060008D5
:10060C004D060008B54B1A68B54B83FB0213591104
:10061C00D317CB1A642101FB03F3D31AB14A82FB23
:10062C0003129210DB17D31A1846FFF761FF0BE089
:10063C000020FFF75DFF07E00020FFF759FF03E004
:10064C000020FFF755FF00BFA74B1B68012B40F0A4
:10065C003581A04B01221A604FF4827000F064FCCB
:10066C002CE100224FF400719B4801F00CF901229F
:10067C004FF45061984801F006F97B68032B28D899
:10068C0001A252F823F000BFA5060008C706000817
:10069C00CF060008D7060008904B1A68914B83FBD5
:1006AC0002139910D317C91A0B469B000B445B001D
:1006BC00D11A0846FFF71CFF0BE00220FFF718FFCA
:1006CC0007E00320FFF714FF03E00420FFF710FFFF
:1006DC0000BF854B1B68012B40F0F2807D4B022242
:1006EC001A604FF4827000F01FFCE9E000224FF416
:1006FC008061794801F0C7F801224FF430617648E7
:10070C0001F0C1F87B68032B62D801A252F823F0E8
:10071C002D0700085907000885070008B1070008D5
:10072C00724B1A686E4B83FB02135911D317CB1AF9
:10073C00642101FB03F3D31A6A4A82FB0312921061
:10074C00DB17D31A1846FFF7D3FE41E0684B1A6843
:10075C00634B83FB02135911D317CB1A642101FB92
:10076C0003F3D31A5F4A82FB03129210DB17D31ADE
:10077C001846FFF7BDFE2BE05E4B1A68584B83FB07
:10078C0002135911D317CB1A642101FB03F3D31AAB
:10079C00544A82FB03129210DB17D31A1846FFF748
:1007AC00A7FE15E0544B1A684D4B83FB02135911ED
:1007BC00D317CB1A642101FB03F3D31A494A82FBEA
:1007CC0003129210DB17D31A1846FFF791FE00BFE5
:1007DC00454B1B68012B75D13E4B03221A604FF41D
:1007EC00827000F0A1FB6DE000224FF400613A48EA
:1007FC0001F049F801224FF4E061374801F043F869
:10080C007B68032B4ED801A252F823F0290800086C
:10081C004B0800086D0800088F080008334B1A6855
:10082C00304B83FB02139910D317C91A0B469B004C
:10083C000B445B00D11A0846FFF75AFE32E02C4BF2
:10084C001A68284B83FB02139910D317C91A0B464D
:10085C009B000B445B00D11A0846FFF749FE21E0D0
:10086C00244B1A681F4B83FB02139910D317C91A18
:10087C000B469B000B445B00D11A0846FFF738FE71
:10088C0010E01D4B1A68174B83FB02139910D317FA
:10089C00C91A0B469B000B445B00D11A0846FFF7A4
:1008AC0027FE00BF104B1B68012B0DD1094B0022FA
:1008BC001A604FF4827000F037FB05E000BF04E0D3
:1008CC0000BF02E000BF00E000BF00BF0837BD461C
:1008DC0080BD00BF94000020000801408C00002067
:1008EC001F85EB5167666666AC0000209000002007
:1008FC003C000020400000204400002080B500AFE8
:10090C00644B1B68032B00F2C38001A252F823F046
:10091C002D0900086D090008CF090008310A0008EC
:10092C00012202215C4800F0AEFF012204215A484A
:10093C0000F0A9FF01220821574800F0A4FF574BF3
:10094C001B684FF47A7202FB03F3184600F0B8FAF6
:10095C00524B1B68524A13604E4B01221A6097E0AF
:10096C00002202214C4800F08EFF012204214A484B
:10097C0000F089FF01220821474800F084FF494B11
:10098C001B68012B08D1464B1B68013B444A136082
:10099C004FF47A7000F0FCFA434B1B68012B72D1B8
:1009AC003C4B03221A603D4B9B683D4A13603B4B0A
:1009BC009B684FF47A7202FB03F3184600F080FA3E
:1009CC0061E001220221344800F05DFF0122082180
:1009DC00314800F058FF002204212F4800F053FF4B
:1009EC00304B1B68012B08D12D4B1B68013B2C4A4B
:1009FC0013604FF47A7000F0CBFA2B4B1B68012B71
:100A0C0043D1244B01221A60244B1B68244A1360E7
:100A1C00224B1B684FF47A7202FB03F3184600F06A
:100A2C004FFA32E0012202211B4800F02CFF002279
:100A3C000821194800F027FF01220421164800F074
:100A4C0022FF184B1B68012B08D1154B1B68013B6F
:100A5C00134A13604FF47A7000F09AFA124B1B6829
:100A6C00012B14D10B4B02221A600C4B5B680C4A05
:100A7C0013600A4B5B684FF47A7202FB03F318465F
:100A8C0000F01EFA03E000BF02E000BF00E000BF70
:100A9C0000BF80BD84000020000801403000002011
:100AAC008C000020BC0000209C00002080B500AF12
:100ABC00644B1B68032B00F2C38001A252F823F095
:100ACC00DD0A00081D0B00087F0B0008E10B000875
:100ADC00012210215C4800F0D6FE012220215A4848
:100AEC0000F0D1FE01224021574800F0CCFE574BBC
:100AFC009B684FF47A7202FB03F3184600F02EFA4F
:100B0C00524B9B68524A13604E4B01221A6097E07D
:100B1C00012210214C4800F0B6FE012220214A4847
:100B2C0000F0B1FE00224021474800F0ACFE494BDA
:100B3C001B68012B0FD1434B02221A60434B5B689D
:100B4C00434A1360414B5B684FF47A7202FB03F328
:100B5C00184600F003FA404B1B68012B6BD13C4B41
:100B6C001B68013B3A4A13604FF47A7000F02AFA82
:100B7C0061E001221021344800F085FE0022202182
:100B8C00314800F080FE012240212F4800F07BFE0E
:100B9C00304B1B68012B0FD12A4B03221A602B4BB5
:100BAC001B682B4A1360294B1B684FF47A7202FBAB
:100BBC0003F3184600F0D2F9274B1B68012B3CD1EC
:100BCC00234B1B68013B224A13604FF47A7000F0F0
:100BDC00F9F932E0002210211B4800F054FE0122EA
:100BEC002021194800F04FFE01224021164800F048
:100BFC004AFE184B1B68012B0FD1124B01221A60B5
:100C0C00124B9B68124A1360104B9B684FF47A721C
:100C1C0002FB03F3184600F0A1F90F4B1B68012BE4
:100C2C000DD10B4B1B68013B094A13604FF47A70D2
:100C3C0000F0C8F903E000BF02E000BF00E000BF15
:100C4C0000BF80BD8800002000080140300000205B
:100C5C0090000020B4000020C400002080B500AF3C
:100C6C0000F010FB00F01CF800F0A2F800F054F8B3
:100C7C000A4801F071FA642000F022F9642000F0B7
:100C8C0039F9642000F050F9642000F067F9642011
:100C9C0000F07EF9642000F095F9FEE7C800002012
:100CAC0080B590B000AF07F1180328220021184638
:100CBC0001F00AFE3B1D00221A605A609A60DA604D
:100CCC001A610223BB610123BB621023FB62002368
:100CDC007B6307F11803184600F006FE0346002B51
:100CEC0001D000F0C7F80F237B600023BB6000230A
:100CFC00FB6000233B6100237B613B1D00211846F8
:100D0C0001F072F80346002B01D000F0B3F800BFDD
:100D1C004037BD4680BD000080B586B000AF07F1FE
:100D2C00080300221A605A609A60DA603B4600227F
:100D3C001A605A601D4B4FF080421A601B4B41F6F3
:100D4C003F725A60194B00229A60184B0922DA60E4
:100D5C00164B00221A61154B00229A61134801F0C0
:100D6C00ABF90346002B01D000F084F84FF480530C
:100D7C00BB6007F1080319460C4801F041FB034620
:100D8C00002B01D000F076F800233B6000237B6041
:100D9C003B461946054801F009FD0346002B01D0DE
:100DAC0000F068F800BF1837BD4680BDC8000020B1
:100DBC0080B586B000AF07F1080300221A605A60B4
:100DCC009A60DA60284B9B69274A43F004039361CD
:100DDC00254B9B6903F004037B607B68224B9B696A
:100DEC00214A43F0080393611F4B9B6903F00803EE
:100DFC003B603B68002240F67E711C4800F043FDCE
:100E0C0000227F211A4800F03EFD40F67E73BB6045
:100E1C000123FB6000233B6102237B6107F1080384
:100E2C001946124800F09EFB7F23BB600123FB6038
:100E3C0000233B6102237B6107F1080319460C4830
:100E4C0000F090FB4FF46043BB600023FB60012378
:100E5C003B6107F108031946044800F083FB00BF0F
:100E6C001837BD4680BD00BF00100240000801408D
:100E7C00000C014080B400AF72B600BFFEE700006A
:100E8C0080B400AF044B00221A60044B00221A609D
:100E9C0000BFBD4680BC7047980000209C0000201D
:100EAC0080B400AF044B00221A60044B00221A607D
:100EBC0000BFBD4680BC7047B0000020B4000020CD
:100ECC0080B483B000AF7860074B1B687A6892FBE4
:100EDC00F3F3064A1360064B00221A6000BF0C376E
:100EEC00BD4680BC704700BF480000209800002021
:100EFC009C00002080B483B000AF7860074B1B6867
:100F0C007A6892FBF3F3064A1360064B00221A60D0
:100F1C0000BF0C37BD4680BC704700BF48000020A6
:100F2C00A0000020A400002080B483B000AF786043
:100F3C00074B1B687A6892FBF3F3064A1360064B67
:100F4C0000221A6000BF0C37BD4680BC704700BF42
:100F5C0048000020A8000020AC00002080B483B022
:100F6C0000AF7860074B1B687A6892FBF3F3064A74
:100F7C001360064B00221A6000BF0C37BD4680BCC4
:100F8C00704700BF48000020B0000020B4000020D3
:100F9C0080B483B000AF7860074B1B687A6892FB13
:100FAC00F3F3064A1360064B00221A6000BF0C379D
:100FBC00BD4680BC704700BF48000020B800002030
:100FCC00BC00002080B483B000AF7860074B1B6876
:100FDC007A6892FBF3F3064A1360064B00221A6000
:100FEC0000BF0C37BD4680BC704700BF48000020D6
:100FFC00C0000020C400002080B400AF314B1B683F
:10100C00002B0BDD2F4B1B68013B2E4A13602D4B25
:10101C001B68002B02DC2C4B01221A602B4B1B682B
:10102C00002B0BDD294B1B68013B284A1360274B17
:10103C001B68002B02DC264B01221A60254B1B6817
:10104C00002B0BDD234B1B68013B224A1360214B09
:10105C001B68002B02DC204B01221A601F4B1B6803
:10106C00002B0BDD1D4B1B68013B1C4A13601B4BFB
:10107C001B68002B02DC1A4B01221A60194B1B68EF
:10108C00002B0BDD174B1B68013B164A1360154BED
:10109C001B68002B02DC144B01221A60134B1B68DB
:1010AC00002B0BDD114B1B68013B104A13600F4BDF
:1010BC001B68002B02DC0E4B01221A6000BFBD46E0
:1010CC0080BC7047980000209C000020A0000020ED
:1010DC00A4000020A8000020AC000020B0000020DC
:1010EC00B4000020B8000020BC000020C00000208C
:1010FC00C400002080B485B000AF154B9B69144A26
:10110C0043F001039361124B9B6903F00103BB6035
:10111C00BB680F4BDB690E4A43F08053D3610C4B19
:10112C00DB6903F080537B607B680A4B5B68FB6078
:10113C00FB6823F0E063FB60FB6843F08063FB60BB
:10114C00044AFB68536000BF1437BD4680BC70472F
:10115C00001002400000014080B584B000AF786000
:10116C007B681B68B3F1804F13D10C4BDB690B4AC6
:10117C0043F00103D361094BDB6903F00103FB600E
:10118C00FB68002200211C2000F0B5F91C2000F0A7
:10119C00CEF900BF1037BD4680BD00BF0010024025
:1011AC0080B400AFFEE780B400AFFEE780B400AFC0
:1011BC00FEE780B400AFFEE780B400AFFEE780B47A
:1011CC0000AF00BFBD4680BC704780B400AF00BF0D
:1011DC00BD4680BC704780B400AF00BFBD4680BC2C
:1011EC00704780B500AF00F093F800BF80BD0000E1
:1011FC0080B500AF024800F0FBFF00BF80BD00BF10
:10120C00C800002080B400AF00BFBD4680BC704752
:10121C0080B582B000AF78607B681B68B3F1804FFB
:10122C0005D1FFF7E1F8FEF7DFFFFFF7E5FE00BFA2
:10123C000837BD4680BD00000C480D490D4A0023FF
:10124C0002E0D458C4500433C4188C42F9D30A4A6F
:10125C000A4C002301E013600432A242FBD3FFF7D7
:10126C00D1FF01F00DFBFFF7F9FC704700000020E7
:10127C0058000020242900085800002014010020E8
:10128C00FEE7000080B500AF084B1B68074A43F02F
:10129C0010031360032000F023F90F2000F008F86E
:1012AC00FFF728FF0023184680BD00BF0020024036
:1012BC0080B582B000AF7860124B1A68124B1B7865
:1012CC0019464FF47A73B3FBF1F3B2FBF3F3184600
:1012DC0000F03BF90346002B01D001230EE07B68A4
:1012EC000F2B0AD8002279684FF0FF3000F003F979
:1012FC00064A7B681360002300E001231846083778
:10130C00BD4680BD4C000020540000205000002041
:10131C0080B400AF054B1B781A46054B1B68134471
:10132C00034A136000BFBD4680BC704754000020C8
:10133C001001002080B400AF024B1B681846BD465C
:10134C0080BC70471001002080B485B000AF78607D
:10135C007B6803F00703FB600C4BDB68BB60BA686F
:10136C004FF6FF031340BB60FB681A02BB681343C4
:10137C0043F0BF6343F40033BB60044ABB68D360E3
:10138C0000BF1437BD4680BC704700BF00ED00E0C5
:10139C0080B400AF044BDB681B0A03F0070318464C
:1013AC00BD4680BC704700BF00ED00E080B483B048
:1013BC0000AF0346FB7197F90730002B0BDBFB7971
:1013CC0003F01F02064997F907305B09012000FA68
:1013DC0002F241F8232000BF0C37BD4680BC704799
:1013EC0000E100E080B483B000AF03463960FB71CC
:1013FC0097F90730002B0ADB3B68DAB20C4997F9F6
:10140C0007301201D2B20B4483F800230AE03B6888
:10141C00DAB20849FB7903F00F03043B1201D2B294
:10142C000B441A7600BF0C37BD4680BC704700BF1A
:10143C0000E100E000ED00E080B489B000AFF8609E
:10144C00B9607A60FB6803F00703FB61FB69C3F1C9
:10145C000703042B28BF0423BB61FB690433062B51
:10146C0002D9FB69033B00E000237B614FF0FF32A4
:10147C00BB6902FA03F3DA43BB681A407B699A40F2
:10148C004FF0FF317B6901FA03F3D9437B680B40C2
:10149C00134318462437BD4680BC704780B582B0D4
:1014AC0000AF78607B68013BB3F1807F01D30123EF
:1014BC000FE00A4A7B68013B53600F214FF0FF306D
:1014CC00FFF790FF054B00229A60044B07221A602D
:1014DC00002318460837BD4680BD00BF10E000E071
:1014EC0080B582B000AF78607868FFF72DFF00BF41
:1014FC000837BD4680BD80B586B000AF0346B960E5
:10150C007A60FB7300237B61FFF742FF78617A6896
:10151C00B9687869FFF790FF024697F90F301146CA
:10152C001846FFF75FFF00BF1837BD4680BD80B57A
:10153C0082B000AF0346FB7197F907301846FFF7EE
:10154C0035FF00BF0837BD4680BD80B582B000AF07
:10155C0078607868FFF7A2FF034618460837BD4647
:10156C0080BD000080B48BB000AF78603960002380
:10157C007B6200233B6248E101227B6A02FA03F39F
:10158C00FB613B681B68FA691340BB61BA69FB6974
:10159C009A4240F037813B685B68A34A93425ED025
:1015AC00A14A934275D8A14A934258D09F4A93427C
:1015BC006FD89F4A934252D09D4A934269D89D4A14
:1015CC0093424CD09B4A934263D89B4A934246D059
:1015DC00994A93425DD8122B2AD8122B59D801A2C2
:1015EC0052F823F06B160008451600085716000831
:1015FC00991600089F1600089F1600089F160008F1
:10160C009F1600089F1600089F1600089F160008DA
:10161C009F1600089F1600089F1600089F160008CA
:10162C009F1600089F1600084D160008611600084A
:10163C00824A934213D02CE03B68DB683B6229E082
:10164C003B68DB6804333B6224E03B68DB680833AF
:10165C003B621FE03B68DB680C333B621AE03B6883
:10166C009B68002B02D104233B6213E03B689B6810
:10167C00012B05D108233B627B68FA691A6109E0EA
:10168C0008233B627B68FA695A6103E000233B62E2
:10169C0000E000BFBB69FF2B01D87B6801E07B68D1
:1016AC0004337B61BB69FF2B02D87B6A9B0002E091
:1016BC007B6A083B9B003B617B691A680F213B6985
:1016CC0001FA03F3DB431A40396A3B6901FA03F36D
:1016DC001A437B691A603B685B6803F08053002BEC
:1016EC0000F09080564B9B69554A43F0010393617F
:1016FC00534B9B6903F00103BB60BB68514A7B6A87
:10170C009B08023352F82330FB607B6A03F003031F
:10171C009B000F2202FA03F3DB43FA681340FB60D1
:10172C007B68494A93420DD07B68484A934207D064
:10173C007B68474A934201D1022304E0032302E071
:10174C00012300E000237A6A02F003029200934026
:10175C00FA681343FB603B497B6A9B080233FA68C7
:10176C0041F823203B685B6803F48033002B06D0E0
:10177C00384B1A683749BB6913430B6006E0354B8D
:10178C001A68BB69DB43334913400B603B685B68E9
:10179C0003F40033002B06D02E4B5A682D49BB693D
:1017AC0013434B6006E02B4B5A68BB69DB4329495A
:1017BC0013404B603B685B6803F48013002B06D02E
:1017CC00244B9A682349BB6913438B6006E0214B79
:1017DC009A68BB69DB431F4913408B603B685B68AD
:1017EC0003F40013002B06D01A4BDA681949BB69B5
:1017FC001343CB6006E0174BDA68BB69DB43154932
:10180C001340CB607B6A01337B623B681A687B6A4E
:10181C0022FA03F3002B7FF4AFAE00BF00BF2C37CE
:10182C00BD4680BC704700BF000032100000311074
:10183C0000002210000021100000121000001110F6
:10184C00001002400000014000080140000C014063
:10185C00001001400004014080B485B000AF7860F6
:10186C000B467B807B689A687B881340002B02D0E8
:10187C000123FB7301E00023FB73FB7B1846143739
:10188C00BD4680BC704780B483B000AF78600B4617
:10189C007B8013467B707B78002B03D07A887B6827
:1018AC001A6103E07B881A047B681A6100BF0C374D
:1018BC00BD4680BC704780B485B000AF78600B46E5
:1018CC007B807B68DB68FB607A88FB6813401A04BA
:1018DC00FB68D9437B880B401A437B681A6100BFB5
:1018EC001437BD4680BC704780B586B000AF7860B9
:1018FC007B68002B01D101236CE27B681B6803F031
:10190C000103002B00F08780924B5B6803F00C0303
:10191C00042B0CD08F4B5B6803F00C03082B12D1FB
:10192C008C4B5B6803F48033B3F5803F0BD1894B50
:10193C001B6803F40033002B6CD07B685B68002BB6
:10194C0068D1012346E27B685B68B3F5803F06D122
:10195C00804B1B687F4A43F4803313602EE07B6816
:10196C005B68002B0CD17B4B1B687A4A23F48033C9
:10197C001360784B1B68774A23F4802313601DE0B7
:10198C007B685B68B3F5A02F0CD1724B1B68714A56
:10199C0043F4802313606F4B1B686E4A43F480330F
:1019AC0013600BE06B4B1B686A4A23F480331360A3
:1019BC00684B1B68674A23F4802313607B685B6861
:1019CC00002B13D0FFF7B6FC386108E0FFF7B2FC30
:1019DC0002463B69D31A642B01D90323FAE15D4B10
:1019EC001B6803F40033002BF0D014E0FFF7A2FCCB
:1019FC00386108E0FFF79EFC02463B69D31A642B62
:101A0C0001D90323E6E1534B1B6803F40033002B8D
:101A1C00F0D100E000BF7B681B6803F00203002BD1
:101A2C0063D04C4B5B6803F00C03002B0BD0494B81
:101A3C005B6803F00C03082B1CD1464B5B6803F46A
:101A4C008033002B16D1434B1B6803F00203002B91
:101A5C0005D07B681B69012B01D00123BAE13D4BFA
:101A6C001B6823F0F8027B685B69DB003949134380
:101A7C000B603AE07B681B69002B20D0364B0122AF
:101A8C001A60FFF757FC386108E0FFF753FC024679
:101A9C003B69D31A022B01D903239BE12D4B1B6805
:101AAC0003F00203002BF0D02A4B1B6823F0F80242
:101ABC007B685B69DB00274913430B6015E0264B01
:101ACC0000221A60FFF736FC386108E0FFF732FCA1
:101ADC0002463B69D31A022B01D903237AE11D4B31
:101AEC001B6803F00203002BF0D17B681B6803F02A
:101AFC000803002B3AD07B689B69002B19D0174B3D
:101B0C0001221A60FFF716FC386108E0FFF712FC9F
:101B1C0002463B69D31A022B01D903235AE10D4B20
:101B2C005B6A03F00203002BF0D0012000F0A6FA50
:101B3C001CE00A4B00221A60FFF7FCFB38610FE037
:101B4C00FFF7F8FB02463B69D31A022B08D9032393
:101B5C0040E100BF001002400000424280044242BB
:101B6C009E4B5B6A03F00203002BE9D17B681B6878
:101B7C0003F00403002B00F0A6800023FB75974BA9
:101B8C00DB6903F08053002B0DD1944BDB69934A36
:101B9C0043F08053D361914BDB6903F08053BB60FE
:101BAC00BB680123FB758E4B1B6803F48073002B01
:101BBC0018D18B4B1B688A4A43F480731360FFF770
:101BCC00B9FB386108E0FFF7B5FB02463B69D31A55
:101BDC00642B01D90323FDE0814B1B6803F4807354
:101BEC00002BF0D07B68DB68012B06D17B4B1B6A8A
:101BFC007A4A43F0010313622DE07B68DB68002B0B
:101C0C000CD1764B1B6A754A23F001031362734B9C
:101C1C001B6A724A23F0040313621CE07B68DB68C6
:101C2C00052B0CD16D4B1B6A6C4A43F004031362F9
:101C3C006A4B1B6A694A43F0010313620BE0674B62
:101C4C001B6A664A23F001031362644B1B6A634AE6
:101C5C0023F0040313627B68DB68002B15D0FFF7BD
:101C6C0069FB38610AE0FFF765FB02463B69D31A52
:101C7C0041F28832934201D90323ABE0574B1B6AE4
:101C8C0003F00203002BEED014E0FFF753FB386196
:101C9C000AE0FFF74FFB02463B69D31A41F2883248
:101CAC00934201D9032395E04C4B1B6A03F00203CA
:101CBC00002BEED1FB7D012B05D1484BDB69474A4C
:101CCC0023F08053D3617B68DB69002B00F08180AB
:101CDC00424B5B6803F00C03082B61D07B68DB691B
:101CEC00022B46D13F4B00221A60FFF723FB3861D1
:101CFC0008E0FFF71FFB02463B69D31A022B01D900
:101D0C00032367E0354B1B6803F00073002BF0D105
:101D1C007B681B6AB3F5803F08D1304B5B6823F4BA
:101D2C0000327B689B682D4913434B602B4B5B68DF
:101D3C0023F474127B68196A7B685B6A0B4327492E
:101D4C0013434B60274B01221A60FFF7F3FA3861FB
:101D5C0008E0FFF7EFFA02463B69D31A022B01D9D0
:101D6C00032337E01D4B1B6803F00073002BF0D0EE
:101D7C002FE01C4B00221A60FFF7DCFA386108E0F8
:101D8C00FFF7D8FA02463B69D31A022B01D9032379
:101D9C0020E0124B1B6803F00073002BF0D118E00D
:101DAC007B68DB69012B01D1012313E00B4B5B68D2
:101DBC00FB60FB6803F480327B681B6A9A4206D195
:101DCC00FB6803F470127B685B6A9A4201D00123B2
:101DDC0000E0002318461837BD4680BD00100240B5
:101DEC00007000406000424280B584B000AF786063
:101DFC0039607B68002B01D10123D0E06A4B1B6852
:101E0C0003F007033A689A4210D9674B1B6823F01A
:101E1C00070265493B6813430B60634B1B6803F077
:101E2C0007033A689A4201D00123B8E07B681B682B
:101E3C0003F00203002B20D07B681B6803F0040323
:101E4C00002B05D0594B5B68584A43F4E063536050
:101E5C007B681B6803F00803002B05D0534B5B68B1
:101E6C00524A43F460535360504B5B6823F0F002CA
:101E7C007B689B684D4913434B607B681B6803F080
:101E8C000103002B40D07B685B68012B07D1474BCB
:101E9C001B6803F40033002B15D101237FE07B6812
:101EAC005B68022B07D1414B1B6803F00073002BBE
:101EBC0009D1012373E03D4B1B6803F00203002B97
:101ECC0001D101236BE0394B5B6823F003027B6883
:101EDC005B68364913434B60FFF72CFAF8600AE055
:101EEC00FFF728FA0246FB68D31A41F28832934274
:101EFC0001D9032353E02D4B5B6803F00C027B6884
:101F0C005B689B009A42EBD1274B1B6803F00703DD
:101F1C003A689A4210D2244B1B6823F007022249DC
:101F2C003B6813430B60204B1B6803F007033A68B4
:101F3C009A4201D0012332E07B681B6803F0040352
:101F4C00002B08D0194B5B6823F4E0627B68DB68DC
:101F5C00164913434B607B681B6803F00803002B86
:101F6C0009D0124B5B6823F460527B681B69DB0061
:101F7C000E4913434B6000F021F802460B4B5B6893
:101F8C001B0903F00F030A49CB5C22FA03F3094A3D
:101F9C001360094B1B681846FFF78AF90023184693
:101FAC001037BD4680BD00BF00200240001002402B
:101FBC000C2900084C0000205000002090B48AB07E
:101FCC0000AF2A4B3C1D0FCB84E80F0040F20123DD
:101FDC003B800023FB610023BB6100237B62002359
:101FEC007B6100233B62224B5B68FB61FB6903F066
:101FFC000C03042B02D0082B03D02DE01D4B3B62AD
:10200C002DE0FB699B0C03F00F0307F1280213442E
:10201C0013F8243C7B61FB6903F48033002B13D051
:10202C00134B5B685B0C03F0010307F128021344AC
:10203C0013F8283CBB617B690E4A02FB03F2BB69B7
:10204C00B2FBF3F37B6204E07B690B4A02FB03F304
:10205C007B627B6A3B6202E0064B3B6200BF3B6AE1
:10206C0018462837BD4690BC704700BFFC280008B6
:10207C000010024000127A0000093D0080B485B0C7
:10208C0000AF78600A4B1B680A4AA2FB03235B0A69
:10209C007A6802FB03F3FB6000BFFB685A1EFA6010
:1020AC00002BF9D100BF00BF1437BD4680BC704770
:1020BC004C000020D34D621080B582B000AF786028
:1020CC007B68002B01D1012341E07B6893F83D3004
:1020DC00DBB2002B06D17B68002283F83C207868A9
:1020EC00FFF73AF87B68022283F83D207B681A6878
:1020FC007B6804331946104600F06AFA7B680122AB
:10210C0083F846207B68012283F83E207B680122FD
:10211C0083F83F207B68012283F840207B680122F2
:10212C0083F841207B68012283F842207B680122DE
:10213C0083F843207B68012283F844207B680122CA
:10214C0083F845207B68012283F83D200023184644
:10215C000837BD4680BD000080B485B000AF786004
:10216C007B6893F83D30DBB2012B01D0012335E0C5
:10217C007B68022283F83D207B681B68DA687B68E9
:10218C001B6842F00102DA607B681B68164A9342B6
:10219C0009D07B681B68B3F1804F04D07B681B6847
:1021AC00124A934211D17B681B689B6803F00703AA
:1021BC00FB60FB68062B10D07B681B681A687B6879
:1021CC001B6842F001021A6007E07B681B681A6802
:1021DC007B681B6842F001021A6000231846143712
:1021EC00BD4680BC704700BF002C0140000400407D
:1021FC0080B582B000AF78607B681B681B6903F008
:10220C000203022B22D17B681B68DB6803F00203FC
:10221C00022B1BD17B681B686FF002021A617B6872
:10222C0001221A777B681B689B6903F00303002B60
:10223C0003D0786800F0B1F905E0786800F0A4F9F3
:10224C00786800F0B3F97B6800221A777B681B680A
:10225C001B6903F00403042B22D17B681B68DB6829
:10226C0003F00403042B1BD17B681B686FF0040282
:10227C001A617B6802221A777B681B689B6903F4DE
:10228C004073002B03D0786800F087F905E078687C
:10229C0000F07AF9786800F089F97B6800221A77E7
:1022AC007B681B681B6903F00803082B22D17B6831
:1022BC001B68DB6803F00803082B1BD17B681B68C9
:1022CC006FF008021A617B6804221A777B681B681E
:1022DC00DB6903F00303002B03D0786800F05DF991
:1022EC0005E0786800F050F9786800F05FF97B68D9
:1022FC0000221A777B681B681B6903F01003102BF4
:10230C0022D17B681B68DB6803F01003102B1BD1F8
:10231C007B681B686FF010021A617B6808221A77C1
:10232C007B681B68DB6903F44073002B03D078686F
:10233C0000F033F905E0786800F026F9786800F0D1
:10234C0035F97B6800221A777B681B681B6903F0E0
:10235C000103012B0ED17B681B68DB6803F00103C2
:10236C00012B07D17B681B686FF001021A6178683A
:10237C00FEF74EFF7B681B681B6903F08003802B04
:10238C000ED17B681B68DB6803F08003802B07D1C0
:10239C007B681B686FF080021A61786800F067FA3E
:1023AC007B681B681B6903F04003402B0ED17B68D4
:1023BC001B68DB6803F04003402B07D17B681B686C
:1023CC006FF040021A61786800F0F9F87B681B68BE
:1023DC001B6903F02003202B0ED17B681B68DB6884
:1023EC0003F02003202B07D17B681B686FF02002C1
:1023FC001A61786800F032FA00BF0837BD4680BD1C
:10240C0080B584B000AF786039607B6893F83C305D
:10241C00012B01D10223B3E07B68012283F83C201D
:10242C007B68022283F83D207B681B689B68FB60FD
:10243C00FB6823F07703FB60FB6823F47F43FB60AE
:10244C007B681B68FA689A603B681B68B3F5005F91
:10245C003ED0B3F5005F00F28780B3F5805F00F0EB
:10246C008580B3F5805F7FD8702B1AD0702B7BD80A
:10247C00602B50D0602B77D8502B3CD0502B73D87E
:10248C00402B58D0402B6FD8302B64D0302B6BD8CE
:10249C00202B60D0202B67D8002B5CD0102B5AD06F
:1024AC0062E07B6818683B6899683B685A683B68CF
:1024BC00DB6800F05CF97B681B689B68FB60FB6861
:1024CC0043F07703FB607B681B68FA689A604EE008
:1024DC007B6818683B6899683B685A683B68DB689E
:1024EC0000F045F97B681B689A687B681B6842F4AE
:1024FC0080429A603BE07B6818683B6859683B688F
:10250C00DB681A4600F0BCF87B681B685021184643
:10251C0000F013F92BE07B6818683B6859683B683E
:10252C00DB681A4600F0DAF87B681B6860211846F5
:10253C0000F003F91BE07B6818683B6859683B683E
:10254C00DB681A4600F09CF87B681B684021184633
:10255C0000F0F3F80BE07B681A683B681B681946BF
:10256C00104600F0EAF802E000BF00E000BF7B6814
:10257C00012283F83D207B68002283F83C20002355
:10258C0018461037BD4680BD80B483B000AF78606C
:10259C0000BF0C37BD4680BC704780B483B000AF21
:1025AC00786000BF0C37BD4680BC704780B483B0E8
:1025BC0000AF786000BF0C37BD4680BC704780B45C
:1025CC0083B000AF786000BF0C37BD4680BC70474D
:1025DC0080B485B000AF786039607B681B68FB60A5
:1025EC007B68254A934207D07B68B3F1804F03D0B8
:1025FC007B68224A934208D1FB6823F07003FB608E
:10260C003B685B68FA681343FB607B681A4A934229
:10261C0007D07B68B3F1804F03D07B68174A934295
:10262C0008D1FB6823F44073FB603B68DB68FA68F5
:10263C001343FB60FB6823F080023B685B69134328
:10264C00FB607B68FA681A603B689A687B68DA62A0
:10265C003B681A687B689A627B68074A934203D18D
:10266C003B681A697B681A637B6801225A6100BF58
:10267C001437BD4680BC7047002C0140000400405C
:10268C0080B487B000AFF860B9607A60FB681B6AF1
:10269C007B61FB681B6A23F00102FB681A62FB6812
:1026AC009B693B613B6923F0F0033B617B681B0139
:1026BC003A6913433B617B6923F00A037B617A69B6
:1026CC00BB6813437B61FB683A699A61FB687A6962
:1026DC001A6200BF1C37BD4680BC704780B487B0FF
:1026EC0000AFF860B9607A60FB681B6A23F01002D7
:1026FC00FB681A62FB689B697B61FB681B6A3B6128
:10270C007B6923F470437B617B681B037A691343F9
:10271C007B613B6923F0A0033B61BB681B013A69F9
:10272C0013433B61FB687A699A61FB683A691A62E8
:10273C0000BF1C37BD4680BC704780B485B000AF6D
:10274C00786039607B689B68FB60FB6823F07003E2
:10275C00FB603A68FB68134343F00703FB607B683C
:10276C00FA689A6000BF1437BD4680BC704780B4CD
:10277C0087B000AFF860B9607A603B60FB689B681B
:10278C007B617B6923F47F437B613B681A027B6826
:10279C001A43BB6813437A6913437B61FB687A69FC
:1027AC009A6000BF1C37BD4680BC704780B485B0B2
:1027BC0000AF786039607B6893F83C30012B01D115
:1027CC00022341E07B68012283F83C207B680222D3
:1027DC0083F83D207B681B685B68FB607B681B682B
:1027EC009B68BB60FB6823F07003FB603B681B6855
:1027FC00FA681343FB607B681B68FA685A607B6855
:10280C001B68144A934209D07B681B68B3F1804F54
:10281C0004D07B681B68104A93420CD1BB6823F030
:10282C008003BB603B685B68BA681343BB607B6822
:10283C001B68BA689A607B68012283F83D207B682C
:10284C00002283F83C20002318461437BD4680BC78
:10285C00704700BF002C01400004004080B483B0DE
:10286C0000AF786000BF0C37BD4680BC704780B4A9
:10287C0083B000AF786000BF0C37BD4680BC70479A
:10288C0070B500260C4D0D4C641BA410A64209D14A
:10289C0000F022F800260A4D0A4C641BA410A64234
:1028AC0005D170BD55F8043B98470136EEE755F855
:1028BC00043B98470136F2E71C2900081C29000844
:1028CC001C2900082029000803460244934200D129
:1028DC00704703F8011BF9E7F8B500BFF8BC08BC5A
:1028EC009E467047F8B500BFF8BC08BC9E467047C2
:1028FC0002030405060708090A0B0C0D0E0F101035
:10290C000000000000000000010203040607080993
:04291C00310100087D
:042920000D0100089D
:10292400010000000100000001000000010000009F
:10293400010000000100000001000000010000008F
:10294400010000000100000001000000010000007F
:102954000500000002000000030000000500000064
:102964000200000003000000090000000024F4003D
:0829740010000000010000004A
:040000050800124598
:00000001FF
